{
  "contractName": "Carti",
  "abi": [
    {
      "inputs": [],
      "stateMutability": "nonpayable",
      "type": "constructor"
    },
    {
      "inputs": [],
      "name": "ECDSAInvalidSignature",
      "type": "error"
    },
    {
      "inputs": [
        {
          "internalType": "uint256",
          "name": "length",
          "type": "uint256"
        }
      ],
      "name": "ECDSAInvalidSignatureLength",
      "type": "error"
    },
    {
      "inputs": [
        {
          "internalType": "bytes32",
          "name": "s",
          "type": "bytes32"
        }
      ],
      "name": "ECDSAInvalidSignatureS",
      "type": "error"
    },
    {
      "inputs": [
        {
          "internalType": "address",
          "name": "spender",
          "type": "address"
        },
        {
          "internalType": "uint256",
          "name": "allowance",
          "type": "uint256"
        },
        {
          "internalType": "uint256",
          "name": "needed",
          "type": "uint256"
        }
      ],
      "name": "ERC20InsufficientAllowance",
      "type": "error"
    },
    {
      "inputs": [
        {
          "internalType": "address",
          "name": "sender",
          "type": "address"
        },
        {
          "internalType": "uint256",
          "name": "balance",
          "type": "uint256"
        },
        {
          "internalType": "uint256",
          "name": "needed",
          "type": "uint256"
        }
      ],
      "name": "ERC20InsufficientBalance",
      "type": "error"
    },
    {
      "inputs": [
        {
          "internalType": "address",
          "name": "approver",
          "type": "address"
        }
      ],
      "name": "ERC20InvalidApprover",
      "type": "error"
    },
    {
      "inputs": [
        {
          "internalType": "address",
          "name": "receiver",
          "type": "address"
        }
      ],
      "name": "ERC20InvalidReceiver",
      "type": "error"
    },
    {
      "inputs": [
        {
          "internalType": "address",
          "name": "sender",
          "type": "address"
        }
      ],
      "name": "ERC20InvalidSender",
      "type": "error"
    },
    {
      "inputs": [
        {
          "internalType": "address",
          "name": "spender",
          "type": "address"
        }
      ],
      "name": "ERC20InvalidSpender",
      "type": "error"
    },
    {
      "inputs": [
        {
          "internalType": "uint256",
          "name": "deadline",
          "type": "uint256"
        }
      ],
      "name": "ERC2612ExpiredSignature",
      "type": "error"
    },
    {
      "inputs": [
        {
          "internalType": "address",
          "name": "signer",
          "type": "address"
        },
        {
          "internalType": "address",
          "name": "owner",
          "type": "address"
        }
      ],
      "name": "ERC2612InvalidSigner",
      "type": "error"
    },
    {
      "inputs": [
        {
          "internalType": "address",
          "name": "account",
          "type": "address"
        },
        {
          "internalType": "uint256",
          "name": "currentNonce",
          "type": "uint256"
        }
      ],
      "name": "InvalidAccountNonce",
      "type": "error"
    },
    {
      "inputs": [],
      "name": "InvalidShortString",
      "type": "error"
    },
    {
      "inputs": [
        {
          "internalType": "address",
          "name": "owner",
          "type": "address"
        }
      ],
      "name": "OwnableInvalidOwner",
      "type": "error"
    },
    {
      "inputs": [
        {
          "internalType": "address",
          "name": "account",
          "type": "address"
        }
      ],
      "name": "OwnableUnauthorizedAccount",
      "type": "error"
    },
    {
      "inputs": [
        {
          "internalType": "string",
          "name": "str",
          "type": "string"
        }
      ],
      "name": "StringTooLong",
      "type": "error"
    },
    {
      "anonymous": false,
      "inputs": [
        {
          "indexed": true,
          "internalType": "address",
          "name": "owner",
          "type": "address"
        },
        {
          "indexed": true,
          "internalType": "address",
          "name": "spender",
          "type": "address"
        },
        {
          "indexed": false,
          "internalType": "uint256",
          "name": "value",
          "type": "uint256"
        }
      ],
      "name": "Approval",
      "type": "event"
    },
    {
      "anonymous": false,
      "inputs": [],
      "name": "EIP712DomainChanged",
      "type": "event"
    },
    {
      "anonymous": false,
      "inputs": [
        {
          "indexed": true,
          "internalType": "address",
          "name": "previousOwner",
          "type": "address"
        },
        {
          "indexed": true,
          "internalType": "address",
          "name": "newOwner",
          "type": "address"
        }
      ],
      "name": "OwnershipTransferred",
      "type": "event"
    },
    {
      "anonymous": false,
      "inputs": [
        {
          "indexed": true,
          "internalType": "address",
          "name": "from",
          "type": "address"
        },
        {
          "indexed": true,
          "internalType": "address",
          "name": "to",
          "type": "address"
        },
        {
          "indexed": false,
          "internalType": "uint256",
          "name": "value",
          "type": "uint256"
        }
      ],
      "name": "Transfer",
      "type": "event"
    },
    {
      "inputs": [],
      "name": "DOMAIN_SEPARATOR",
      "outputs": [
        {
          "internalType": "bytes32",
          "name": "",
          "type": "bytes32"
        }
      ],
      "stateMutability": "view",
      "type": "function"
    },
    {
      "inputs": [
        {
          "internalType": "address",
          "name": "owner",
          "type": "address"
        },
        {
          "internalType": "address",
          "name": "spender",
          "type": "address"
        }
      ],
      "name": "allowance",
      "outputs": [
        {
          "internalType": "uint256",
          "name": "",
          "type": "uint256"
        }
      ],
      "stateMutability": "view",
      "type": "function"
    },
    {
      "inputs": [
        {
          "internalType": "address",
          "name": "spender",
          "type": "address"
        },
        {
          "internalType": "uint256",
          "name": "value",
          "type": "uint256"
        }
      ],
      "name": "approve",
      "outputs": [
        {
          "internalType": "bool",
          "name": "",
          "type": "bool"
        }
      ],
      "stateMutability": "nonpayable",
      "type": "function"
    },
    {
      "inputs": [
        {
          "internalType": "address",
          "name": "account",
          "type": "address"
        }
      ],
      "name": "balanceOf",
      "outputs": [
        {
          "internalType": "uint256",
          "name": "",
          "type": "uint256"
        }
      ],
      "stateMutability": "view",
      "type": "function"
    },
    {
      "inputs": [],
      "name": "decimals",
      "outputs": [
        {
          "internalType": "uint8",
          "name": "",
          "type": "uint8"
        }
      ],
      "stateMutability": "view",
      "type": "function"
    },
    {
      "inputs": [],
      "name": "eip712Domain",
      "outputs": [
        {
          "internalType": "bytes1",
          "name": "fields",
          "type": "bytes1"
        },
        {
          "internalType": "string",
          "name": "name",
          "type": "string"
        },
        {
          "internalType": "string",
          "name": "version",
          "type": "string"
        },
        {
          "internalType": "uint256",
          "name": "chainId",
          "type": "uint256"
        },
        {
          "internalType": "address",
          "name": "verifyingContract",
          "type": "address"
        },
        {
          "internalType": "bytes32",
          "name": "salt",
          "type": "bytes32"
        },
        {
          "internalType": "uint256[]",
          "name": "extensions",
          "type": "uint256[]"
        }
      ],
      "stateMutability": "view",
      "type": "function"
    },
    {
      "inputs": [],
      "name": "name",
      "outputs": [
        {
          "internalType": "string",
          "name": "",
          "type": "string"
        }
      ],
      "stateMutability": "view",
      "type": "function"
    },
    {
      "inputs": [
        {
          "internalType": "address",
          "name": "owner",
          "type": "address"
        }
      ],
      "name": "nonces",
      "outputs": [
        {
          "internalType": "uint256",
          "name": "",
          "type": "uint256"
        }
      ],
      "stateMutability": "view",
      "type": "function"
    },
    {
      "inputs": [],
      "name": "owner",
      "outputs": [
        {
          "internalType": "address",
          "name": "",
          "type": "address"
        }
      ],
      "stateMutability": "view",
      "type": "function"
    },
    {
      "inputs": [
        {
          "internalType": "address",
          "name": "owner",
          "type": "address"
        },
        {
          "internalType": "address",
          "name": "spender",
          "type": "address"
        },
        {
          "internalType": "uint256",
          "name": "value",
          "type": "uint256"
        },
        {
          "internalType": "uint256",
          "name": "deadline",
          "type": "uint256"
        },
        {
          "internalType": "uint8",
          "name": "v",
          "type": "uint8"
        },
        {
          "internalType": "bytes32",
          "name": "r",
          "type": "bytes32"
        },
        {
          "internalType": "bytes32",
          "name": "s",
          "type": "bytes32"
        }
      ],
      "name": "permit",
      "outputs": [],
      "stateMutability": "nonpayable",
      "type": "function"
    },
    {
      "inputs": [],
      "name": "pricePerToken",
      "outputs": [
        {
          "internalType": "uint256",
          "name": "",
          "type": "uint256"
        }
      ],
      "stateMutability": "view",
      "type": "function"
    },
    {
      "inputs": [],
      "name": "renounceOwnership",
      "outputs": [],
      "stateMutability": "nonpayable",
      "type": "function"
    },
    {
      "inputs": [],
      "name": "symbol",
      "outputs": [
        {
          "internalType": "string",
          "name": "",
          "type": "string"
        }
      ],
      "stateMutability": "view",
      "type": "function"
    },
    {
      "inputs": [],
      "name": "totalSupply",
      "outputs": [
        {
          "internalType": "uint256",
          "name": "",
          "type": "uint256"
        }
      ],
      "stateMutability": "view",
      "type": "function"
    },
    {
      "inputs": [],
      "name": "transferFee",
      "outputs": [
        {
          "internalType": "uint256",
          "name": "",
          "type": "uint256"
        }
      ],
      "stateMutability": "view",
      "type": "function"
    },
    {
      "inputs": [
        {
          "internalType": "address",
          "name": "newOwner",
          "type": "address"
        }
      ],
      "name": "transferOwnership",
      "outputs": [],
      "stateMutability": "nonpayable",
      "type": "function"
    },
    {
      "inputs": [
        {
          "internalType": "uint256",
          "name": "_transferFee",
          "type": "uint256"
        }
      ],
      "name": "setTransferFee",
      "outputs": [],
      "stateMutability": "nonpayable",
      "type": "function"
    },
    {
      "inputs": [],
      "name": "buy",
      "outputs": [],
      "stateMutability": "payable",
      "type": "function"
    },
    {
      "inputs": [
        {
          "internalType": "address",
          "name": "to",
          "type": "address"
        },
        {
          "internalType": "uint256",
          "name": "amount",
          "type": "uint256"
        }
      ],
      "name": "mint",
      "outputs": [],
      "stateMutability": "nonpayable",
      "type": "function"
    },
    {
      "inputs": [
        {
          "internalType": "address",
          "name": "to",
          "type": "address"
        },
        {
          "internalType": "uint256",
          "name": "value",
          "type": "uint256"
        }
      ],
      "name": "transfer",
      "outputs": [
        {
          "internalType": "bool",
          "name": "",
          "type": "bool"
        }
      ],
      "stateMutability": "nonpayable",
      "type": "function"
    },
    {
      "inputs": [
        {
          "internalType": "address",
          "name": "from",
          "type": "address"
        },
        {
          "internalType": "address",
          "name": "to",
          "type": "address"
        },
        {
          "internalType": "uint256",
          "name": "value",
          "type": "uint256"
        }
      ],
      "name": "transferFrom",
      "outputs": [
        {
          "internalType": "bool",
          "name": "",
          "type": "bool"
        }
      ],
      "stateMutability": "nonpayable",
      "type": "function"
    }
  ],
  "bytecode": "0x610160604052662386f26fc10000600a553480156200001c575f80fd5b50336040518060400160405280600581526020017f4361727469000000000000000000000000000000000000000000000000000000815250806040518060400160405280600181526020017f31000000000000000000000000000000000000000000000000000000000000008152506040518060400160405280600581526020017f43617274690000000000000000000000000000000000000000000000000000008152506040518060400160405280600581526020017f43415254490000000000000000000000000000000000000000000000000000008152508160039081620001089190620006ac565b5080600490816200011a9190620006ac565b505050620001336005836200026160201b90919060201c565b6101208181525050620001516006826200026160201b90919060201c565b6101408181525050818051906020012060e08181525050808051906020012061010081815250504660a0818152505062000190620002b660201b60201c565b608081815250503073ffffffffffffffffffffffffffffffffffffffff1660c08173ffffffffffffffffffffffffffffffffffffffff16815250505050505f73ffffffffffffffffffffffffffffffffffffffff168173ffffffffffffffffffffffffffffffffffffffff160362000241575f6040517f1e4fbdf7000000000000000000000000000000000000000000000000000000008152600401620002389190620007d3565b60405180910390fd5b62000252816200031260201b60201c565b506001600981905550620009be565b5f60208351101562000286576200027e83620003d560201b60201c565b9050620002b0565b8262000298836200043f60201b60201c565b5f019081620002a89190620006ac565b5060ff5f1b90505b92915050565b5f7f8b73c3c69bb8fe3d512ecc4cf759cc79239f7b179b0ffacaa9a75d522b39400f60e051610100514630604051602001620002f795949392919062000819565b60405160208183030381529060405280519060200120905090565b5f60085f9054906101000a900473ffffffffffffffffffffffffffffffffffffffff1690508160085f6101000a81548173ffffffffffffffffffffffffffffffffffffffff021916908373ffffffffffffffffffffffffffffffffffffffff1602179055508173ffffffffffffffffffffffffffffffffffffffff168173ffffffffffffffffffffffffffffffffffffffff167f8be0079c531659141344cd1fd0a4f28419497f9722a3daafe3b4186f6b6457e060405160405180910390a35050565b5f80829050601f815111156200042457826040517f305a27a90000000000000000000000000000000000000000000000000000000081526004016200041b9190620008fe565b60405180910390fd5b80518162000432906200094f565b5f1c175f1b915050919050565b5f819050919050565b5f81519050919050565b7f4e487b71000000000000000000000000000000000000000000000000000000005f52604160045260245ffd5b7f4e487b71000000000000000000000000000000000000000000000000000000005f52602260045260245ffd5b5f6002820490506001821680620004c457607f821691505b602082108103620004da57620004d96200047f565b5b50919050565b5f819050815f5260205f209050919050565b5f6020601f8301049050919050565b5f82821b905092915050565b5f600883026200053e7fffffffffffffffffffffffffffffffffffffffffffffffffffffffffffffffff8262000501565b6200054a868362000501565b95508019841693508086168417925050509392505050565b5f819050919050565b5f819050919050565b5f620005946200058e620005888462000562565b6200056b565b62000562565b9050919050565b5f819050919050565b620005af8362000574565b620005c7620005be826200059b565b8484546200050d565b825550505050565b5f90565b620005dd620005cf565b620005ea818484620005a4565b505050565b5b818110156200061157620006055f82620005d3565b600181019050620005f0565b5050565b601f82111562000660576200062a81620004e0565b6200063584620004f2565b8101602085101562000645578190505b6200065d6200065485620004f2565b830182620005ef565b50505b505050565b5f82821c905092915050565b5f620006825f198460080262000665565b1980831691505092915050565b5f6200069c838362000671565b9150826002028217905092915050565b620006b78262000448565b67ffffffffffffffff811115620006d357620006d262000452565b5b620006df8254620004ac565b620006ec82828562000615565b5f60209050601f83116001811462000722575f84156200070d578287015190505b6200071985826200068f565b86555062000788565b601f1984166200073286620004e0565b5f5b828110156200075b5784890151825560018201915060208501945060208101905062000734565b868310156200077b578489015162000777601f89168262000671565b8355505b6001600288020188555050505b505050505050565b5f73ffffffffffffffffffffffffffffffffffffffff82169050919050565b5f620007bb8262000790565b9050919050565b620007cd81620007af565b82525050565b5f602082019050620007e85f830184620007c2565b92915050565b5f819050919050565b6200080281620007ee565b82525050565b620008138162000562565b82525050565b5f60a0820190506200082e5f830188620007f7565b6200083d6020830187620007f7565b6200084c6040830186620007f7565b6200085b606083018562000808565b6200086a6080830184620007c2565b9695505050505050565b5f82825260208201905092915050565b5f5b83811015620008a357808201518184015260208101905062000886565b5f8484015250505050565b5f601f19601f8301169050919050565b5f620008ca8262000448565b620008d6818562000874565b9350620008e881856020860162000884565b620008f381620008ae565b840191505092915050565b5f6020820190508181035f830152620009188184620008be565b905092915050565b5f81519050919050565b5f819050602082019050919050565b5f620009468251620007ee565b80915050919050565b5f6200095b8262000920565b8262000967846200092a565b9050620009748162000939565b92506020821015620009b757620009b27fffffffffffffffffffffffffffffffffffffffffffffffffffffffffffffffff8360200360080262000501565b831692505b5050919050565b60805160a05160c05160e051610100516101205161014051612d5662000a105f395f61151701525f6114dc01525f611a1001525f6119ef01525f61121101525f61126701525f6112900152612d565ff3fe608060405260043610610129575f3560e01c80637ecebe00116100aa578063a6f2ae3a1161006e578063a6f2ae3a146103d9578063a9059cbb146103e3578063acb2ad6f1461041f578063d505accf14610449578063dd62ed3e14610471578063f2fde38b146104ad57610129565b80637ecebe00146102f157806384b0196e1461032d5780638da5cb5b1461035d5780638f02bb5b1461038757806395d89b41146103af57610129565b80633644e515116100f15780633644e5151461022357806340c10f191461024d57806370a0823114610275578063715018a6146102b15780637b1b1de6146102c757610129565b806306fdde031461012d578063095ea7b31461015757806318160ddd1461019357806323b872dd146101bd578063313ce567146101f9575b5f80fd5b348015610138575f80fd5b506101416104d5565b60405161014e9190611ee0565b60405180910390f35b348015610162575f80fd5b5061017d60048036038101906101789190611f91565b610565565b60405161018a9190611fe9565b60405180910390f35b34801561019e575f80fd5b506101a7610587565b6040516101b49190612011565b60405180910390f35b3480156101c8575f80fd5b506101e360048036038101906101de919061202a565b610590565b6040516101f09190611fe9565b60405180910390f35b348015610204575f80fd5b5061020d6107e6565b60405161021a9190612095565b60405180910390f35b34801561022e575f80fd5b506102376107ee565b60405161024491906120c6565b60405180910390f35b348015610258575f80fd5b50610273600480360381019061026e9190611f91565b6107fc565b005b348015610280575f80fd5b5061029b600480360381019061029691906120df565b6108c2565b6040516102a89190612011565b60405180910390f35b3480156102bc575f80fd5b506102c5610907565b005b3480156102d2575f80fd5b506102db61091a565b6040516102e89190612011565b60405180910390f35b3480156102fc575f80fd5b50610317600480360381019061031291906120df565b610920565b6040516103249190612011565b60405180910390f35b348015610338575f80fd5b50610341610931565b604051610354979695949392919061220a565b60405180910390f35b348015610368575f80fd5b506103716109d6565b60405161037e919061228c565b60405180910390f35b348015610392575f80fd5b506103ad60048036038101906103a891906122a5565b6109fe565b005b3480156103ba575f80fd5b506103c3610a97565b6040516103d09190611ee0565b60405180910390f35b6103e1610b27565b005b3480156103ee575f80fd5b5061040960048036038101906104049190611f91565b610c1a565b6040516104169190611fe9565b60405180910390f35b34801561042a575f80fd5b50610433610da3565b6040516104409190612011565b60405180910390f35b348015610454575f80fd5b5061046f600480360381019061046a9190612324565b610da9565b005b34801561047c575f80fd5b50610497600480360381019061049291906123c1565b610eee565b6040516104a49190612011565b60405180910390f35b3480156104b8575f80fd5b506104d360048036038101906104ce91906120df565b610f70565b005b6060600380546104e49061242c565b80601f01602080910402602001604051908101604052809291908181526020018280546105109061242c565b801561055b5780601f106105325761010080835404028352916020019161055b565b820191905f5260205f20905b81548152906001019060200180831161053e57829003601f168201915b5050505050905090565b5f8061056f610ff4565b905061057c818585610ffb565b600191505092915050565b5f600254905090565b5f8073ffffffffffffffffffffffffffffffffffffffff168473ffffffffffffffffffffffffffffffffffffffff16036105ff576040517f08c379a00000000000000000000000000000000000000000000000000000000081526004016105f6906124cc565b60405180910390fd5b5f73ffffffffffffffffffffffffffffffffffffffff168373ffffffffffffffffffffffffffffffffffffffff160361066d576040517f08c379a00000000000000000000000000000000000000000000000000000000081526004016106649061255a565b60405180910390fd5b5f82116106af576040517f08c379a00000000000000000000000000000000000000000000000000000000081526004016106a6906125e8565b60405180910390fd5b816106b9856108c2565b10156106fa576040517f08c379a00000000000000000000000000000000000000000000000000000000081526004016106f190612650565b60405180910390fd5b8161070c85610707610ff4565b610eee565b101561074d576040517f08c379a0000000000000000000000000000000000000000000000000000000008152600401610744906126de565b60405180910390fd5b5f610756610ff4565b905061076385828561100d565b5f6064600954856107749190612729565b61077e9190612797565b90505f818561078d91906127c7565b905061079a87878361109f565b3073ffffffffffffffffffffffffffffffffffffffff168673ffffffffffffffffffffffffffffffffffffffff16146107d8576107d7878361118f565b5b600193505050509392505050565b5f6012905090565b5f6107f761120e565b905090565b6108046112c4565b5f8111610846576040517f08c379a000000000000000000000000000000000000000000000000000000000815260040161083d90612844565b60405180910390fd5b5f73ffffffffffffffffffffffffffffffffffffffff168273ffffffffffffffffffffffffffffffffffffffff16036108b4576040517f08c379a00000000000000000000000000000000000000000000000000000000081526004016108ab906128ac565b60405180910390fd5b6108be828261134b565b5050565b5f805f8373ffffffffffffffffffffffffffffffffffffffff1673ffffffffffffffffffffffffffffffffffffffff1681526020019081526020015f20549050919050565b61090f6112c4565b6109185f6113ca565b565b600a5481565b5f61092a8261148d565b9050919050565b5f6060805f805f60606109426114d3565b61094a61150e565b46305f801b5f67ffffffffffffffff811115610969576109686128ca565b5b6040519080825280602002602001820160405280156109975781602001602082028036833780820191505090505b507f0f00000000000000000000000000000000000000000000000000000000000000959493929190965096509650965096509650965090919293949596565b5f60085f9054906101000a900473ffffffffffffffffffffffffffffffffffffffff16905090565b610a066112c4565b6063811115610a4a576040517f08c379a0000000000000000000000000000000000000000000000000000000008152600401610a4190612941565b60405180910390fd5b5f811015610a8d576040517f08c379a0000000000000000000000000000000000000000000000000000000008152600401610a84906129a9565b60405180910390fd5b8060098190555050565b606060048054610aa69061242c565b80601f0160208091040260200160405190810160405280929190818152602001828054610ad29061242c565b8015610b1d5780601f10610af457610100808354040283529160200191610b1d565b820191905f5260205f20905b815481529060010190602001808311610b0057829003601f168201915b5050505050905090565b5f3411610b69576040517f08c379a0000000000000000000000000000000000000000000000000000000008152600401610b6090612a37565b60405180910390fd5b5f600a5434610b789190612797565b90505f8111610bbc576040517f08c379a0000000000000000000000000000000000000000000000000000000008152600401610bb390612ac5565b60405180910390fd5b5f610bc6306108c2565b905081811015610c0b576040517f08c379a0000000000000000000000000000000000000000000000000000000008152600401610c0290612b53565b60405180910390fd5b610c1630338461109f565b5050565b5f8073ffffffffffffffffffffffffffffffffffffffff168373ffffffffffffffffffffffffffffffffffffffff1603610c89576040517f08c379a0000000000000000000000000000000000000000000000000000000008152600401610c809061255a565b60405180910390fd5b5f8211610ccb576040517f08c379a0000000000000000000000000000000000000000000000000000000008152600401610cc2906125e8565b60405180910390fd5b81610cd5336108c2565b1015610d16576040517f08c379a0000000000000000000000000000000000000000000000000000000008152600401610d0d90612650565b60405180910390fd5b5f610d1f610ff4565b90505f606460095485610d329190612729565b610d3c9190612797565b90505f8185610d4b91906127c7565b9050610d5883878361109f565b3073ffffffffffffffffffffffffffffffffffffffff168673ffffffffffffffffffffffffffffffffffffffff1614610d9657610d95838361118f565b5b6001935050505092915050565b60095481565b83421115610dee57836040517f62791302000000000000000000000000000000000000000000000000000000008152600401610de59190612011565b60405180910390fd5b5f7f6e71edae12b1b97f4d1f60370fef10105fa2faae0126114a169c64845d6126c9888888610e1c8c611549565b89604051602001610e3296959493929190612b71565b6040516020818303038152906040528051906020012090505f610e548261159c565b90505f610e63828787876115b5565b90508973ffffffffffffffffffffffffffffffffffffffff168173ffffffffffffffffffffffffffffffffffffffff1614610ed757808a6040517f4b800e46000000000000000000000000000000000000000000000000000000008152600401610ece929190612bd0565b60405180910390fd5b610ee28a8a8a610ffb565b50505050505050505050565b5f60015f8473ffffffffffffffffffffffffffffffffffffffff1673ffffffffffffffffffffffffffffffffffffffff1681526020019081526020015f205f8373ffffffffffffffffffffffffffffffffffffffff1673ffffffffffffffffffffffffffffffffffffffff1681526020019081526020015f2054905092915050565b610f786112c4565b5f73ffffffffffffffffffffffffffffffffffffffff168173ffffffffffffffffffffffffffffffffffffffff1603610fe8575f6040517f1e4fbdf7000000000000000000000000000000000000000000000000000000008152600401610fdf919061228c565b60405180910390fd5b610ff1816113ca565b50565b5f33905090565b61100883838360016115e3565b505050565b5f6110188484610eee565b90507fffffffffffffffffffffffffffffffffffffffffffffffffffffffffffffffff8114611099578181101561108a578281836040517ffb8f41b200000000000000000000000000000000000000000000000000000000815260040161108193929190612bf7565b60405180910390fd5b61109884848484035f6115e3565b5b50505050565b5f73ffffffffffffffffffffffffffffffffffffffff168373ffffffffffffffffffffffffffffffffffffffff160361110f575f6040517f96c6fd1e000000000000000000000000000000000000000000000000000000008152600401611106919061228c565b60405180910390fd5b5f73ffffffffffffffffffffffffffffffffffffffff168273ffffffffffffffffffffffffffffffffffffffff160361117f575f6040517fec442f05000000000000000000000000000000000000000000000000000000008152600401611176919061228c565b60405180910390fd5b61118a8383836117b2565b505050565b5f73ffffffffffffffffffffffffffffffffffffffff168273ffffffffffffffffffffffffffffffffffffffff16036111ff575f6040517f96c6fd1e0000000000000000000000000000000000000000000000000000000081526004016111f6919061228c565b60405180910390fd5b61120a825f836117b2565b5050565b5f7f000000000000000000000000000000000000000000000000000000000000000073ffffffffffffffffffffffffffffffffffffffff163073ffffffffffffffffffffffffffffffffffffffff1614801561128957507f000000000000000000000000000000000000000000000000000000000000000046145b156112b6577f000000000000000000000000000000000000000000000000000000000000000090506112c1565b6112be6119cb565b90505b90565b6112cc610ff4565b73ffffffffffffffffffffffffffffffffffffffff166112ea6109d6565b73ffffffffffffffffffffffffffffffffffffffff16146113495761130d610ff4565b6040517f118cdaa7000000000000000000000000000000000000000000000000000000008152600401611340919061228c565b60405180910390fd5b565b5f73ffffffffffffffffffffffffffffffffffffffff168273ffffffffffffffffffffffffffffffffffffffff16036113bb575f6040517fec442f050000000000000000000000000000000000000000000000000000000081526004016113b2919061228c565b60405180910390fd5b6113c65f83836117b2565b5050565b5f60085f9054906101000a900473ffffffffffffffffffffffffffffffffffffffff1690508160085f6101000a81548173ffffffffffffffffffffffffffffffffffffffff021916908373ffffffffffffffffffffffffffffffffffffffff1602179055508173ffffffffffffffffffffffffffffffffffffffff168173ffffffffffffffffffffffffffffffffffffffff167f8be0079c531659141344cd1fd0a4f28419497f9722a3daafe3b4186f6b6457e060405160405180910390a35050565b5f60075f8373ffffffffffffffffffffffffffffffffffffffff1673ffffffffffffffffffffffffffffffffffffffff1681526020019081526020015f20549050919050565b606061150960057f0000000000000000000000000000000000000000000000000000000000000000611a6090919063ffffffff16565b905090565b606061154460067f0000000000000000000000000000000000000000000000000000000000000000611a6090919063ffffffff16565b905090565b5f60075f8373ffffffffffffffffffffffffffffffffffffffff1673ffffffffffffffffffffffffffffffffffffffff1681526020019081526020015f205f815480929190600101919050559050919050565b5f6115ae6115a861120e565b83611b0d565b9050919050565b5f805f806115c588888888611b4d565b9250925092506115d58282611c34565b829350505050949350505050565b5f73ffffffffffffffffffffffffffffffffffffffff168473ffffffffffffffffffffffffffffffffffffffff1603611653575f6040517fe602df0500000000000000000000000000000000000000000000000000000000815260040161164a919061228c565b60405180910390fd5b5f73ffffffffffffffffffffffffffffffffffffffff168373ffffffffffffffffffffffffffffffffffffffff16036116c3575f6040517f94280d620000000000000000000000000000000000000000000000000000000081526004016116ba919061228c565b60405180910390fd5b8160015f8673ffffffffffffffffffffffffffffffffffffffff1673ffffffffffffffffffffffffffffffffffffffff1681526020019081526020015f205f8573ffffffffffffffffffffffffffffffffffffffff1673ffffffffffffffffffffffffffffffffffffffff1681526020019081526020015f208190555080156117ac578273ffffffffffffffffffffffffffffffffffffffff168473ffffffffffffffffffffffffffffffffffffffff167f8c5be1e5ebec7d5bd14f71427d1e84f3dd0314c0f7b2291e5b200ac8c7c3b925846040516117a39190612011565b60405180910390a35b50505050565b5f73ffffffffffffffffffffffffffffffffffffffff168373ffffffffffffffffffffffffffffffffffffffff1603611802578060025f8282546117f69190612c2c565b925050819055506118d0565b5f805f8573ffffffffffffffffffffffffffffffffffffffff1673ffffffffffffffffffffffffffffffffffffffff1681526020019081526020015f205490508181101561188b578381836040517fe450d38c00000000000000000000000000000000000000000000000000000000815260040161188293929190612bf7565b60405180910390fd5b8181035f808673ffffffffffffffffffffffffffffffffffffffff1673ffffffffffffffffffffffffffffffffffffffff1681526020019081526020015f2081905550505b5f73ffffffffffffffffffffffffffffffffffffffff168273ffffffffffffffffffffffffffffffffffffffff1603611917578060025f8282540392505081905550611961565b805f808473ffffffffffffffffffffffffffffffffffffffff1673ffffffffffffffffffffffffffffffffffffffff1681526020019081526020015f205f82825401925050819055505b8173ffffffffffffffffffffffffffffffffffffffff168373ffffffffffffffffffffffffffffffffffffffff167fddf252ad1be2c89b69c2b068fc378daa952ba7f163c4a11628f55a4df523b3ef836040516119be9190612011565b60405180910390a3505050565b5f7f8b73c3c69bb8fe3d512ecc4cf759cc79239f7b179b0ffacaa9a75d522b39400f7f00000000000000000000000000000000000000000000000000000000000000007f00000000000000000000000000000000000000000000000000000000000000004630604051602001611a45959493929190612c5f565b60405160208183030381529060405280519060200120905090565b606060ff5f1b8314611a7c57611a7583611d96565b9050611b07565b818054611a889061242c565b80601f0160208091040260200160405190810160405280929190818152602001828054611ab49061242c565b8015611aff5780601f10611ad657610100808354040283529160200191611aff565b820191905f5260205f20905b815481529060010190602001808311611ae257829003601f168201915b505050505090505b92915050565b5f6040517f190100000000000000000000000000000000000000000000000000000000000081528360028201528260228201526042812091505092915050565b5f805f7f7fffffffffffffffffffffffffffffff5d576e7357a4501ddfe92f46681b20a0845f1c1115611b89575f600385925092509250611c2a565b5f6001888888886040515f8152602001604052604051611bac9493929190612cb0565b6020604051602081039080840390855afa158015611bcc573d5f803e3d5ffd5b5050506020604051035190505f73ffffffffffffffffffffffffffffffffffffffff168173ffffffffffffffffffffffffffffffffffffffff1603611c1d575f60015f801b93509350935050611c2a565b805f805f1b935093509350505b9450945094915050565b5f6003811115611c4757611c46612cf3565b5b826003811115611c5a57611c59612cf3565b5b0315611d925760016003811115611c7457611c73612cf3565b5b826003811115611c8757611c86612cf3565b5b03611cbe576040517ff645eedf00000000000000000000000000000000000000000000000000000000815260040160405180910390fd5b60026003811115611cd257611cd1612cf3565b5b826003811115611ce557611ce4612cf3565b5b03611d2957805f1c6040517ffce698f7000000000000000000000000000000000000000000000000000000008152600401611d209190612011565b60405180910390fd5b600380811115611d3c57611d3b612cf3565b5b826003811115611d4f57611d4e612cf3565b5b03611d9157806040517fd78bce0c000000000000000000000000000000000000000000000000000000008152600401611d8891906120c6565b60405180910390fd5b5b5050565b60605f611da283611e08565b90505f602067ffffffffffffffff811115611dc057611dbf6128ca565b5b6040519080825280601f01601f191660200182016040528015611df25781602001600182028036833780820191505090505b5090508181528360208201528092505050919050565b5f8060ff835f1c169050601f811115611e4d576040517fb3512b0c00000000000000000000000000000000000000000000000000000000815260040160405180910390fd5b80915050919050565b5f81519050919050565b5f82825260208201905092915050565b5f5b83811015611e8d578082015181840152602081019050611e72565b5f8484015250505050565b5f601f19601f8301169050919050565b5f611eb282611e56565b611ebc8185611e60565b9350611ecc818560208601611e70565b611ed581611e98565b840191505092915050565b5f6020820190508181035f830152611ef88184611ea8565b905092915050565b5f80fd5b5f73ffffffffffffffffffffffffffffffffffffffff82169050919050565b5f611f2d82611f04565b9050919050565b611f3d81611f23565b8114611f47575f80fd5b50565b5f81359050611f5881611f34565b92915050565b5f819050919050565b611f7081611f5e565b8114611f7a575f80fd5b50565b5f81359050611f8b81611f67565b92915050565b5f8060408385031215611fa757611fa6611f00565b5b5f611fb485828601611f4a565b9250506020611fc585828601611f7d565b9150509250929050565b5f8115159050919050565b611fe381611fcf565b82525050565b5f602082019050611ffc5f830184611fda565b92915050565b61200b81611f5e565b82525050565b5f6020820190506120245f830184612002565b92915050565b5f805f6060848603121561204157612040611f00565b5b5f61204e86828701611f4a565b935050602061205f86828701611f4a565b925050604061207086828701611f7d565b9150509250925092565b5f60ff82169050919050565b61208f8161207a565b82525050565b5f6020820190506120a85f830184612086565b92915050565b5f819050919050565b6120c0816120ae565b82525050565b5f6020820190506120d95f8301846120b7565b92915050565b5f602082840312156120f4576120f3611f00565b5b5f61210184828501611f4a565b91505092915050565b5f7fff0000000000000000000000000000000000000000000000000000000000000082169050919050565b61213e8161210a565b82525050565b61214d81611f23565b82525050565b5f81519050919050565b5f82825260208201905092915050565b5f819050602082019050919050565b61218581611f5e565b82525050565b5f612196838361217c565b60208301905092915050565b5f602082019050919050565b5f6121b882612153565b6121c2818561215d565b93506121cd8361216d565b805f5b838110156121fd5781516121e4888261218b565b97506121ef836121a2565b9250506001810190506121d0565b5085935050505092915050565b5f60e08201905061221d5f83018a612135565b818103602083015261222f8189611ea8565b905081810360408301526122438188611ea8565b90506122526060830187612002565b61225f6080830186612144565b61226c60a08301856120b7565b81810360c083015261227e81846121ae565b905098975050505050505050565b5f60208201905061229f5f830184612144565b92915050565b5f602082840312156122ba576122b9611f00565b5b5f6122c784828501611f7d565b91505092915050565b6122d98161207a565b81146122e3575f80fd5b50565b5f813590506122f4816122d0565b92915050565b612303816120ae565b811461230d575f80fd5b50565b5f8135905061231e816122fa565b92915050565b5f805f805f805f60e0888a03121561233f5761233e611f00565b5b5f61234c8a828b01611f4a565b975050602061235d8a828b01611f4a565b965050604061236e8a828b01611f7d565b955050606061237f8a828b01611f7d565b94505060806123908a828b016122e6565b93505060a06123a18a828b01612310565b92505060c06123b28a828b01612310565b91505092959891949750929550565b5f80604083850312156123d7576123d6611f00565b5b5f6123e485828601611f4a565b92505060206123f585828601611f4a565b9150509250929050565b7f4e487b71000000000000000000000000000000000000000000000000000000005f52602260045260245ffd5b5f600282049050600182168061244357607f821691505b602082108103612456576124556123ff565b5b50919050565b7f43616e6e6f74207472616e736665722066726f6d20746865207a65726f2061645f8201527f6472657373000000000000000000000000000000000000000000000000000000602082015250565b5f6124b6602583611e60565b91506124c18261245c565b604082019050919050565b5f6020820190508181035f8301526124e3816124aa565b9050919050565b7f43616e6e6f74207472616e7366657220746f20746865207a65726f20616464725f8201527f6573730000000000000000000000000000000000000000000000000000000000602082015250565b5f612544602383611e60565b915061254f826124ea565b604082019050919050565b5f6020820190508181035f83015261257181612538565b9050919050565b7f5472616e7366657220616d6f756e742073686f756c64206265206772656174655f8201527f72207468616e207a65726f000000000000000000000000000000000000000000602082015250565b5f6125d2602b83611e60565b91506125dd82612578565b604082019050919050565b5f6020820190508181035f8301526125ff816125c6565b9050919050565b7f4e6f7420656e6f75676820746f6b656e7320746f207472616e736665720000005f82015250565b5f61263a601d83611e60565b915061264582612606565b602082019050919050565b5f6020820190508181035f8301526126678161262e565b9050919050565b7f5472616e7366657220616d6f756e74206578636565647320616c6c6f77616e635f8201527f6500000000000000000000000000000000000000000000000000000000000000602082015250565b5f6126c8602183611e60565b91506126d38261266e565b604082019050919050565b5f6020820190508181035f8301526126f5816126bc565b9050919050565b7f4e487b71000000000000000000000000000000000000000000000000000000005f52601160045260245ffd5b5f61273382611f5e565b915061273e83611f5e565b925082820261274c81611f5e565b91508282048414831517612763576127626126fc565b5b5092915050565b7f4e487b71000000000000000000000000000000000000000000000000000000005f52601260045260245ffd5b5f6127a182611f5e565b91506127ac83611f5e565b9250826127bc576127bb61276a565b5b828204905092915050565b5f6127d182611f5e565b91506127dc83611f5e565b92508282039050818111156127f4576127f36126fc565b5b92915050565b7f416d6f756e74206d757374206265206d6f7265207468656e20300000000000005f82015250565b5f61282e601a83611e60565b9150612839826127fa565b602082019050919050565b5f6020820190508181035f83015261285b81612822565b9050919050565b7f43616e6e6f74206d696e7420746f20746865207a65726f2061646472657373005f82015250565b5f612896601f83611e60565b91506128a182612862565b602082019050919050565b5f6020820190508181035f8301526128c38161288a565b9050919050565b7f4e487b71000000000000000000000000000000000000000000000000000000005f52604160045260245ffd5b7f5472616e73666572206665652063616e6e6f74206578636565642039392500005f82015250565b5f61292b601e83611e60565b9150612936826128f7565b602082019050919050565b5f6020820190508181035f8301526129588161291f565b9050919050565b7f5472616e73666572206665652063616e6e6f74206265206e65676174697665005f82015250565b5f612993601f83611e60565b915061299e8261295f565b602082019050919050565b5f6020820190508181035f8301526129c081612987565b9050919050565b7f596f75206e65656420746f2073656e6420736f6d652045544820746f206275795f8201527f20746f6b656e7300000000000000000000000000000000000000000000000000602082015250565b5f612a21602783611e60565b9150612a2c826129c7565b604082019050919050565b5f6020820190508181035f830152612a4e81612a15565b9050919050565b7f496e73756666696369656e742045544820746f2062757920616e7920746f6b655f8201527f6e73000000000000000000000000000000000000000000000000000000000000602082015250565b5f612aaf602283611e60565b9150612aba82612a55565b604082019050919050565b5f6020820190508181035f830152612adc81612aa3565b9050919050565b7f4e6f7420656e6f75676820746f6b656e7320696e2074686520636f6e747261635f8201527f7400000000000000000000000000000000000000000000000000000000000000602082015250565b5f612b3d602183611e60565b9150612b4882612ae3565b604082019050919050565b5f6020820190508181035f830152612b6a81612b31565b9050919050565b5f60c082019050612b845f8301896120b7565b612b916020830188612144565b612b9e6040830187612144565b612bab6060830186612002565b612bb86080830185612002565b612bc560a0830184612002565b979650505050505050565b5f604082019050612be35f830185612144565b612bf06020830184612144565b9392505050565b5f606082019050612c0a5f830186612144565b612c176020830185612002565b612c246040830184612002565b949350505050565b5f612c3682611f5e565b9150612c4183611f5e565b9250828201905080821115612c5957612c586126fc565b5b92915050565b5f60a082019050612c725f8301886120b7565b612c7f60208301876120b7565b612c8c60408301866120b7565b612c996060830185612002565b612ca66080830184612144565b9695505050505050565b5f608082019050612cc35f8301876120b7565b612cd06020830186612086565b612cdd60408301856120b7565b612cea60608301846120b7565b95945050505050565b7f4e487b71000000000000000000000000000000000000000000000000000000005f52602160045260245ffdfea26469706673582212201e5f27455b304b5b1b3d895d51abb7ff9f5939efc077a857d4fe8ecbfbce2ae664736f6c63430008140033",
  "immutableReferences": {
    "4678": [
      {
        "length": 32,
        "start": 4752
      }
    ],
    "4680": [
      {
        "length": 32,
        "start": 4711
      }
    ],
    "4682": [
      {
        "length": 32,
        "start": 4625
      }
    ],
    "4684": [
      {
        "length": 32,
        "start": 6639
      }
    ],
    "4686": [
      {
        "length": 32,
        "start": 6672
      }
    ],
    "4689": [
      {
        "length": 32,
        "start": 5340
      }
    ],
    "4692": [
      {
        "length": 32,
        "start": 5399
      }
    ]
  },
  "source": "// SPDX-License-Identifier: MIT\npragma solidity ^0.8.20;\n\nimport \"@openzeppelin/contracts/token/ERC20/ERC20.sol\";\nimport \"@openzeppelin/contracts/token/ERC20/extensions/ERC20Permit.sol\";\nimport \"@openzeppelin/contracts/access/Ownable.sol\";\n\ncontract Carti is ERC20, ERC20Permit, Ownable {\n    uint256 public transferFee;\n    uint256 public pricePerToken = 0.01 ether;\n\n    constructor(\n    ) ERC20(\"Carti\", \"CARTI\") ERC20Permit(\"Carti\") Ownable(msg.sender) {\n        transferFee = 1;\n    }\n\n    /**\n     * @notice Sets a new transfer fee percentage.\n     * @dev Transfer fee cannot exceed 100%.\n     * @param _transferFee The new transfer fee percentage.\n     */\n    function setTransferFee(uint256 _transferFee) public onlyOwner {\n        require(_transferFee <= 99, \"Transfer fee cannot exceed 99%\"); \n        require(_transferFee >= 0, \"Transfer fee cannot be negative\");\n        transferFee = _transferFee;\n    }\n\n    /**\n     * @notice Buys tokens by sending ETH to the contract.\n     * @dev The number of tokens received is equal to the amount of ETH sent.\n     */\n    function buy() public payable {\n        require(msg.value > 0, \"You need to send some ETH to buy tokens\");\n\n        uint256 tokensToBuy = msg.value / pricePerToken;\n        require(tokensToBuy > 0, \"Insufficient ETH to buy any tokens\");\n\n        uint256 contractBalance = balanceOf(address(this));\n        require(contractBalance >= tokensToBuy, \"Not enough tokens in the contract\");\n\n        _transfer(address(this), msg.sender, tokensToBuy);\n    }\n\n    /**\n     * @notice Mints new tokens to a specified address.\n     * @dev Only the contract owner can call this function.\n     * @param to The address where tokens will be minted.\n     * @param amount The number of tokens to mint.\n     */\n    function mint(address to, uint256 amount) public onlyOwner {\n        require(amount > 0, \"Amount must be more then 0\");\n        require(to != address(0), \"Cannot mint to the zero address\");\n        _mint(to, amount);\n    }\n\n    /**\n     * @notice Transfers tokens, applying a transfer fee.\n     * @dev A percentage fee is deducted from the transfer amount.\n     * @param to The address to transfer tokens to.\n     * @param value The number of tokens to transfer.\n     * @return A boolean indicating whether the operation succeeded.\n     */\n    function transfer(\n        address to,\n        uint256 value\n    ) public virtual override returns (bool) {\n        require(to != address(0), \"Cannot transfer to the zero address\");\n        require(value > 0, \"Transfer amount should be greater than zero\");\n        require(balanceOf(msg.sender) >= value, \"Not enough tokens to transfer\");\n\n        address owner = _msgSender();\n        uint256 feeAmount = (value * transferFee) / 100;\n        uint256 actualAmount = value - feeAmount;\n\n        _transfer(owner, to, actualAmount);\n\n        if (to != address(this)) {\n            _burn(owner, feeAmount);\n        }\n        return true;\n    }\n\n    /**\n     * @notice Transfers tokens from one address to another, applying a transfer fee.\n     * @dev A percentage fee is deducted from the transfer amount.\n     * @param from The address to send tokens from.\n     * @param to The address to send tokens to.\n     * @param value The number of tokens to transfer.\n     * @return A boolean indicating whether the operation succeeded.\n     */\n    function transferFrom(\n        address from,\n        address to,\n        uint256 value\n    ) public virtual override returns (bool) {\n        require(from != address(0), \"Cannot transfer from the zero address\");\n        require(to != address(0), \"Cannot transfer to the zero address\");\n        require(value > 0, \"Transfer amount should be greater than zero\");\n        require(balanceOf(from) >= value, \"Not enough tokens to transfer\");\n        require(allowance(from, _msgSender()) >= value, \"Transfer amount exceeds allowance\");\n\n        address spender = _msgSender();\n        _spendAllowance(from, spender, value);\n\n        uint256 feeAmount = (value * transferFee) / 100;\n        uint256 actualAmount = value - feeAmount;\n\n        _transfer(from, to, actualAmount);\n\n        if (to != address(this)) {\n            _burn(from, feeAmount);\n        }\n\n        return true;\n    }\n}",
  "sourcePath": "/Users/vasilijlazarev/hse/web3/hw1/contracts/CartiERC20.sol",
  "compiler": {
    "name": "solc",
    "version": "0.8.20+commit.a1b79de6.Emscripten.clang"
  },
  "schemaVersion": "3.4.16",
  "updatedAt": "2024-10-19T21:34:13.738Z",
  "devdoc": {
    "errors": {
      "ECDSAInvalidSignature()": [
        {
          "details": "The signature derives the `address(0)`."
        }
      ],
      "ECDSAInvalidSignatureLength(uint256)": [
        {
          "details": "The signature has an invalid length."
        }
      ],
      "ECDSAInvalidSignatureS(bytes32)": [
        {
          "details": "The signature has an S value that is in the upper half order."
        }
      ],
      "ERC20InsufficientAllowance(address,uint256,uint256)": [
        {
          "details": "Indicates a failure with the `spender`s `allowance`. Used in transfers.",
          "params": {
            "allowance": "Amount of tokens a `spender` is allowed to operate with.",
            "needed": "Minimum amount required to perform a transfer.",
            "spender": "Address that may be allowed to operate on tokens without being their owner."
          }
        }
      ],
      "ERC20InsufficientBalance(address,uint256,uint256)": [
        {
          "details": "Indicates an error related to the current `balance` of a `sender`. Used in transfers.",
          "params": {
            "balance": "Current balance for the interacting account.",
            "needed": "Minimum amount required to perform a transfer.",
            "sender": "Address whose tokens are being transferred."
          }
        }
      ],
      "ERC20InvalidApprover(address)": [
        {
          "details": "Indicates a failure with the `approver` of a token to be approved. Used in approvals.",
          "params": {
            "approver": "Address initiating an approval operation."
          }
        }
      ],
      "ERC20InvalidReceiver(address)": [
        {
          "details": "Indicates a failure with the token `receiver`. Used in transfers.",
          "params": {
            "receiver": "Address to which tokens are being transferred."
          }
        }
      ],
      "ERC20InvalidSender(address)": [
        {
          "details": "Indicates a failure with the token `sender`. Used in transfers.",
          "params": {
            "sender": "Address whose tokens are being transferred."
          }
        }
      ],
      "ERC20InvalidSpender(address)": [
        {
          "details": "Indicates a failure with the `spender` to be approved. Used in approvals.",
          "params": {
            "spender": "Address that may be allowed to operate on tokens without being their owner."
          }
        }
      ],
      "ERC2612ExpiredSignature(uint256)": [
        {
          "details": "Permit deadline has expired."
        }
      ],
      "ERC2612InvalidSigner(address,address)": [
        {
          "details": "Mismatched signature."
        }
      ],
      "InvalidAccountNonce(address,uint256)": [
        {
          "details": "The nonce used for an `account` is not the expected current nonce."
        }
      ],
      "OwnableInvalidOwner(address)": [
        {
          "details": "The owner is not a valid owner account. (eg. `address(0)`)"
        }
      ],
      "OwnableUnauthorizedAccount(address)": [
        {
          "details": "The caller account is not authorized to perform an operation."
        }
      ]
    },
    "events": {
      "Approval(address,address,uint256)": {
        "details": "Emitted when the allowance of a `spender` for an `owner` is set by a call to {approve}. `value` is the new allowance."
      },
      "EIP712DomainChanged()": {
        "details": "MAY be emitted to signal that the domain could have changed."
      },
      "Transfer(address,address,uint256)": {
        "details": "Emitted when `value` tokens are moved from one account (`from`) to another (`to`). Note that `value` may be zero."
      }
    },
    "kind": "dev",
    "methods": {
      "DOMAIN_SEPARATOR()": {
        "details": "Returns the domain separator used in the encoding of the signature for {permit}, as defined by {EIP712}."
      },
      "allowance(address,address)": {
        "details": "See {IERC20-allowance}."
      },
      "approve(address,uint256)": {
        "details": "See {IERC20-approve}. NOTE: If `value` is the maximum `uint256`, the allowance is not updated on `transferFrom`. This is semantically equivalent to an infinite approval. Requirements: - `spender` cannot be the zero address."
      },
      "balanceOf(address)": {
        "details": "See {IERC20-balanceOf}."
      },
      "buy()": {
        "details": "The number of tokens received is equal to the amount of ETH sent."
      },
      "decimals()": {
        "details": "Returns the number of decimals used to get its user representation. For example, if `decimals` equals `2`, a balance of `505` tokens should be displayed to a user as `5.05` (`505 / 10 ** 2`). Tokens usually opt for a value of 18, imitating the relationship between Ether and Wei. This is the default value returned by this function, unless it's overridden. NOTE: This information is only used for _display_ purposes: it in no way affects any of the arithmetic of the contract, including {IERC20-balanceOf} and {IERC20-transfer}."
      },
      "eip712Domain()": {
        "details": "See {IERC-5267}."
      },
      "mint(address,uint256)": {
        "details": "Only the contract owner can call this function.",
        "params": {
          "amount": "The number of tokens to mint.",
          "to": "The address where tokens will be minted."
        }
      },
      "name()": {
        "details": "Returns the name of the token."
      },
      "nonces(address)": {
        "details": "Returns the current nonce for `owner`. This value must be included whenever a signature is generated for {permit}. Every successful call to {permit} increases ``owner``'s nonce by one. This prevents a signature from being used multiple times."
      },
      "owner()": {
        "details": "Returns the address of the current owner."
      },
      "permit(address,address,uint256,uint256,uint8,bytes32,bytes32)": {
        "details": "Sets `value` as the allowance of `spender` over ``owner``'s tokens, given ``owner``'s signed approval. IMPORTANT: The same issues {IERC20-approve} has related to transaction ordering also apply here. Emits an {Approval} event. Requirements: - `spender` cannot be the zero address. - `deadline` must be a timestamp in the future. - `v`, `r` and `s` must be a valid `secp256k1` signature from `owner` over the EIP712-formatted function arguments. - the signature must use ``owner``'s current nonce (see {nonces}). For more information on the signature format, see the https://eips.ethereum.org/EIPS/eip-2612#specification[relevant EIP section]. CAUTION: See Security Considerations above."
      },
      "renounceOwnership()": {
        "details": "Leaves the contract without owner. It will not be possible to call `onlyOwner` functions. Can only be called by the current owner. NOTE: Renouncing ownership will leave the contract without an owner, thereby disabling any functionality that is only available to the owner."
      },
      "setTransferFee(uint256)": {
        "details": "Transfer fee cannot exceed 100%.",
        "params": {
          "_transferFee": "The new transfer fee percentage."
        }
      },
      "symbol()": {
        "details": "Returns the symbol of the token, usually a shorter version of the name."
      },
      "totalSupply()": {
        "details": "See {IERC20-totalSupply}."
      },
      "transfer(address,uint256)": {
        "details": "A percentage fee is deducted from the transfer amount.",
        "params": {
          "to": "The address to transfer tokens to.",
          "value": "The number of tokens to transfer."
        },
        "returns": {
          "_0": "A boolean indicating whether the operation succeeded."
        }
      },
      "transferFrom(address,address,uint256)": {
        "details": "A percentage fee is deducted from the transfer amount.",
        "params": {
          "from": "The address to send tokens from.",
          "to": "The address to send tokens to.",
          "value": "The number of tokens to transfer."
        },
        "returns": {
          "_0": "A boolean indicating whether the operation succeeded."
        }
      },
      "transferOwnership(address)": {
        "details": "Transfers ownership of the contract to a new account (`newOwner`). Can only be called by the current owner."
      }
    },
    "version": 1
  },
  "userdoc": {
    "kind": "user",
    "methods": {
      "buy()": {
        "notice": "Buys tokens by sending ETH to the contract."
      },
      "mint(address,uint256)": {
        "notice": "Mints new tokens to a specified address."
      },
      "setTransferFee(uint256)": {
        "notice": "Sets a new transfer fee percentage."
      },
      "transfer(address,uint256)": {
        "notice": "Transfers tokens, applying a transfer fee."
      },
      "transferFrom(address,address,uint256)": {
        "notice": "Transfers tokens from one address to another, applying a transfer fee."
      }
    },
    "version": 1
  }
}