{
  "contractName": "Rub",
  "abi": [
    {
      "inputs": [],
      "stateMutability": "nonpayable",
      "type": "constructor"
    },
    {
      "inputs": [
        {
          "internalType": "address",
          "name": "sender",
          "type": "address"
        },
        {
          "internalType": "uint256",
          "name": "balance",
          "type": "uint256"
        },
        {
          "internalType": "uint256",
          "name": "needed",
          "type": "uint256"
        },
        {
          "internalType": "uint256",
          "name": "tokenId",
          "type": "uint256"
        }
      ],
      "name": "ERC1155InsufficientBalance",
      "type": "error"
    },
    {
      "inputs": [
        {
          "internalType": "address",
          "name": "approver",
          "type": "address"
        }
      ],
      "name": "ERC1155InvalidApprover",
      "type": "error"
    },
    {
      "inputs": [
        {
          "internalType": "uint256",
          "name": "idsLength",
          "type": "uint256"
        },
        {
          "internalType": "uint256",
          "name": "valuesLength",
          "type": "uint256"
        }
      ],
      "name": "ERC1155InvalidArrayLength",
      "type": "error"
    },
    {
      "inputs": [
        {
          "internalType": "address",
          "name": "operator",
          "type": "address"
        }
      ],
      "name": "ERC1155InvalidOperator",
      "type": "error"
    },
    {
      "inputs": [
        {
          "internalType": "address",
          "name": "receiver",
          "type": "address"
        }
      ],
      "name": "ERC1155InvalidReceiver",
      "type": "error"
    },
    {
      "inputs": [
        {
          "internalType": "address",
          "name": "sender",
          "type": "address"
        }
      ],
      "name": "ERC1155InvalidSender",
      "type": "error"
    },
    {
      "inputs": [
        {
          "internalType": "address",
          "name": "operator",
          "type": "address"
        },
        {
          "internalType": "address",
          "name": "owner",
          "type": "address"
        }
      ],
      "name": "ERC1155MissingApprovalForAll",
      "type": "error"
    },
    {
      "inputs": [
        {
          "internalType": "address",
          "name": "owner",
          "type": "address"
        }
      ],
      "name": "OwnableInvalidOwner",
      "type": "error"
    },
    {
      "inputs": [
        {
          "internalType": "address",
          "name": "account",
          "type": "address"
        }
      ],
      "name": "OwnableUnauthorizedAccount",
      "type": "error"
    },
    {
      "anonymous": false,
      "inputs": [
        {
          "indexed": true,
          "internalType": "address",
          "name": "account",
          "type": "address"
        },
        {
          "indexed": true,
          "internalType": "address",
          "name": "operator",
          "type": "address"
        },
        {
          "indexed": false,
          "internalType": "bool",
          "name": "approved",
          "type": "bool"
        }
      ],
      "name": "ApprovalForAll",
      "type": "event"
    },
    {
      "anonymous": false,
      "inputs": [
        {
          "indexed": true,
          "internalType": "address",
          "name": "previousOwner",
          "type": "address"
        },
        {
          "indexed": true,
          "internalType": "address",
          "name": "newOwner",
          "type": "address"
        }
      ],
      "name": "OwnershipTransferred",
      "type": "event"
    },
    {
      "anonymous": false,
      "inputs": [
        {
          "indexed": true,
          "internalType": "address",
          "name": "operator",
          "type": "address"
        },
        {
          "indexed": true,
          "internalType": "address",
          "name": "from",
          "type": "address"
        },
        {
          "indexed": true,
          "internalType": "address",
          "name": "to",
          "type": "address"
        },
        {
          "indexed": false,
          "internalType": "uint256[]",
          "name": "ids",
          "type": "uint256[]"
        },
        {
          "indexed": false,
          "internalType": "uint256[]",
          "name": "values",
          "type": "uint256[]"
        }
      ],
      "name": "TransferBatch",
      "type": "event"
    },
    {
      "anonymous": false,
      "inputs": [
        {
          "indexed": true,
          "internalType": "address",
          "name": "operator",
          "type": "address"
        },
        {
          "indexed": true,
          "internalType": "address",
          "name": "from",
          "type": "address"
        },
        {
          "indexed": true,
          "internalType": "address",
          "name": "to",
          "type": "address"
        },
        {
          "indexed": false,
          "internalType": "uint256",
          "name": "id",
          "type": "uint256"
        },
        {
          "indexed": false,
          "internalType": "uint256",
          "name": "value",
          "type": "uint256"
        }
      ],
      "name": "TransferSingle",
      "type": "event"
    },
    {
      "anonymous": false,
      "inputs": [
        {
          "indexed": false,
          "internalType": "string",
          "name": "value",
          "type": "string"
        },
        {
          "indexed": true,
          "internalType": "uint256",
          "name": "id",
          "type": "uint256"
        }
      ],
      "name": "URI",
      "type": "event"
    },
    {
      "inputs": [],
      "name": "TOKEN_ID",
      "outputs": [
        {
          "internalType": "uint256",
          "name": "",
          "type": "uint256"
        }
      ],
      "stateMutability": "view",
      "type": "function"
    },
    {
      "inputs": [
        {
          "internalType": "address",
          "name": "account",
          "type": "address"
        },
        {
          "internalType": "uint256",
          "name": "id",
          "type": "uint256"
        }
      ],
      "name": "balanceOf",
      "outputs": [
        {
          "internalType": "uint256",
          "name": "",
          "type": "uint256"
        }
      ],
      "stateMutability": "view",
      "type": "function"
    },
    {
      "inputs": [
        {
          "internalType": "address[]",
          "name": "accounts",
          "type": "address[]"
        },
        {
          "internalType": "uint256[]",
          "name": "ids",
          "type": "uint256[]"
        }
      ],
      "name": "balanceOfBatch",
      "outputs": [
        {
          "internalType": "uint256[]",
          "name": "",
          "type": "uint256[]"
        }
      ],
      "stateMutability": "view",
      "type": "function"
    },
    {
      "inputs": [
        {
          "internalType": "address",
          "name": "account",
          "type": "address"
        },
        {
          "internalType": "address",
          "name": "operator",
          "type": "address"
        }
      ],
      "name": "isApprovedForAll",
      "outputs": [
        {
          "internalType": "bool",
          "name": "",
          "type": "bool"
        }
      ],
      "stateMutability": "view",
      "type": "function"
    },
    {
      "inputs": [],
      "name": "owner",
      "outputs": [
        {
          "internalType": "address",
          "name": "",
          "type": "address"
        }
      ],
      "stateMutability": "view",
      "type": "function"
    },
    {
      "inputs": [],
      "name": "renounceOwnership",
      "outputs": [],
      "stateMutability": "nonpayable",
      "type": "function"
    },
    {
      "inputs": [
        {
          "internalType": "address",
          "name": "from",
          "type": "address"
        },
        {
          "internalType": "address",
          "name": "to",
          "type": "address"
        },
        {
          "internalType": "uint256[]",
          "name": "ids",
          "type": "uint256[]"
        },
        {
          "internalType": "uint256[]",
          "name": "values",
          "type": "uint256[]"
        },
        {
          "internalType": "bytes",
          "name": "data",
          "type": "bytes"
        }
      ],
      "name": "safeBatchTransferFrom",
      "outputs": [],
      "stateMutability": "nonpayable",
      "type": "function"
    },
    {
      "inputs": [
        {
          "internalType": "address",
          "name": "from",
          "type": "address"
        },
        {
          "internalType": "address",
          "name": "to",
          "type": "address"
        },
        {
          "internalType": "uint256",
          "name": "id",
          "type": "uint256"
        },
        {
          "internalType": "uint256",
          "name": "value",
          "type": "uint256"
        },
        {
          "internalType": "bytes",
          "name": "data",
          "type": "bytes"
        }
      ],
      "name": "safeTransferFrom",
      "outputs": [],
      "stateMutability": "nonpayable",
      "type": "function"
    },
    {
      "inputs": [
        {
          "internalType": "address",
          "name": "operator",
          "type": "address"
        },
        {
          "internalType": "bool",
          "name": "approved",
          "type": "bool"
        }
      ],
      "name": "setApprovalForAll",
      "outputs": [],
      "stateMutability": "nonpayable",
      "type": "function"
    },
    {
      "inputs": [
        {
          "internalType": "bytes4",
          "name": "interfaceId",
          "type": "bytes4"
        }
      ],
      "name": "supportsInterface",
      "outputs": [
        {
          "internalType": "bool",
          "name": "",
          "type": "bool"
        }
      ],
      "stateMutability": "view",
      "type": "function"
    },
    {
      "inputs": [
        {
          "internalType": "address",
          "name": "newOwner",
          "type": "address"
        }
      ],
      "name": "transferOwnership",
      "outputs": [],
      "stateMutability": "nonpayable",
      "type": "function"
    },
    {
      "inputs": [
        {
          "internalType": "uint256",
          "name": "",
          "type": "uint256"
        }
      ],
      "name": "uri",
      "outputs": [
        {
          "internalType": "string",
          "name": "",
          "type": "string"
        }
      ],
      "stateMutability": "view",
      "type": "function"
    },
    {
      "inputs": [
        {
          "internalType": "string",
          "name": "newURI",
          "type": "string"
        }
      ],
      "name": "setURI",
      "outputs": [],
      "stateMutability": "nonpayable",
      "type": "function"
    },
    {
      "inputs": [],
      "name": "buy",
      "outputs": [],
      "stateMutability": "payable",
      "type": "function"
    },
    {
      "inputs": [
        {
          "internalType": "address",
          "name": "account",
          "type": "address"
        },
        {
          "internalType": "uint256",
          "name": "id",
          "type": "uint256"
        },
        {
          "internalType": "uint256",
          "name": "amount",
          "type": "uint256"
        },
        {
          "internalType": "bytes",
          "name": "data",
          "type": "bytes"
        }
      ],
      "name": "mint",
      "outputs": [],
      "stateMutability": "nonpayable",
      "type": "function"
    }
  ],
  "bytecode": "0x608060405234801562000010575f80fd5b503360405180606001604052806029815260200162002e1f602991396200003d81620000f460201b60201c565b505f73ffffffffffffffffffffffffffffffffffffffff168173ffffffffffffffffffffffffffffffffffffffff1603620000b1575f6040517f1e4fbdf7000000000000000000000000000000000000000000000000000000008152600401620000a891906200020f565b60405180910390fd5b620000c2816200010960201b60201c565b5060405180606001604052806029815260200162002e1f6029913960049081620000ed91906200048e565b5062000572565b80600290816200010591906200048e565b5050565b5f60035f9054906101000a900473ffffffffffffffffffffffffffffffffffffffff1690508160035f6101000a81548173ffffffffffffffffffffffffffffffffffffffff021916908373ffffffffffffffffffffffffffffffffffffffff1602179055508173ffffffffffffffffffffffffffffffffffffffff168173ffffffffffffffffffffffffffffffffffffffff167f8be0079c531659141344cd1fd0a4f28419497f9722a3daafe3b4186f6b6457e060405160405180910390a35050565b5f73ffffffffffffffffffffffffffffffffffffffff82169050919050565b5f620001f782620001cc565b9050919050565b6200020981620001eb565b82525050565b5f602082019050620002245f830184620001fe565b92915050565b5f81519050919050565b7f4e487b71000000000000000000000000000000000000000000000000000000005f52604160045260245ffd5b7f4e487b71000000000000000000000000000000000000000000000000000000005f52602260045260245ffd5b5f6002820490506001821680620002a657607f821691505b602082108103620002bc57620002bb62000261565b5b50919050565b5f819050815f5260205f209050919050565b5f6020601f8301049050919050565b5f82821b905092915050565b5f60088302620003207fffffffffffffffffffffffffffffffffffffffffffffffffffffffffffffffff82620002e3565b6200032c8683620002e3565b95508019841693508086168417925050509392505050565b5f819050919050565b5f819050919050565b5f62000376620003706200036a8462000344565b6200034d565b62000344565b9050919050565b5f819050919050565b620003918362000356565b620003a9620003a0826200037d565b848454620002ef565b825550505050565b5f90565b620003bf620003b1565b620003cc81848462000386565b505050565b5b81811015620003f357620003e75f82620003b5565b600181019050620003d2565b5050565b601f82111562000442576200040c81620002c2565b6200041784620002d4565b8101602085101562000427578190505b6200043f6200043685620002d4565b830182620003d1565b50505b505050565b5f82821c905092915050565b5f620004645f198460080262000447565b1980831691505092915050565b5f6200047e838362000453565b9150826002028217905092915050565b62000499826200022a565b67ffffffffffffffff811115620004b557620004b462000234565b5b620004c182546200028e565b620004ce828285620003f7565b5f60209050601f83116001811462000504575f8415620004ef578287015190505b620004fb858262000471565b8655506200056a565b601f1984166200051486620002c2565b5f5b828110156200053d5784890151825560018201915060208501945060208101905062000516565b868310156200055d578489015162000559601f89168262000453565b8355505b6001600288020188555050505b505050505050565b61289f80620005805f395ff3fe6080604052600436106100e6575f3560e01c8063731133e911610089578063a6f2ae3a11610058578063a6f2ae3a146102e4578063e985e9c5146102ee578063f242432a1461032a578063f2fde38b14610352576100e6565b8063731133e91461024057806389a89002146102685780638da5cb5b14610292578063a22cb465146102bc576100e6565b80630e89341c116100c55780630e89341c1461018a5780632eb2c2d6146101c65780634e1273f4146101ee578063715018a61461022a576100e6565b8062fdd58e146100ea57806301ffc9a71461012657806302fe530514610162575b5f80fd5b3480156100f5575f80fd5b50610110600480360381019061010b9190611840565b61037a565b60405161011d919061188d565b60405180910390f35b348015610131575f80fd5b5061014c600480360381019061014791906118fb565b6103cf565b6040516101599190611940565b60405180910390f35b34801561016d575f80fd5b5061018860048036038101906101839190611a95565b6104b0565b005b348015610195575f80fd5b506101b060048036038101906101ab9190611adc565b6104d4565b6040516101bd9190611b81565b60405180910390f35b3480156101d1575f80fd5b506101ec60048036038101906101e79190611d03565b610566565b005b3480156101f9575f80fd5b50610214600480360381019061020f9190611e8e565b61060d565b6040516102219190611fbb565b60405180910390f35b348015610235575f80fd5b5061023e61071a565b005b34801561024b575f80fd5b5061026660048036038101906102619190611fdb565b61072d565b005b348015610273575f80fd5b5061027c610789565b604051610289919061188d565b60405180910390f35b34801561029d575f80fd5b506102a661078d565b6040516102b3919061206a565b60405180910390f35b3480156102c7575f80fd5b506102e260048036038101906102dd91906120ad565b6107b5565b005b6102ec6107cb565b005b3480156102f9575f80fd5b50610314600480360381019061030f91906120eb565b61082e565b6040516103219190611940565b60405180910390f35b348015610335575f80fd5b50610350600480360381019061034b9190612129565b6108bc565b005b34801561035d575f80fd5b50610378600480360381019061037391906121bc565b610963565b005b5f805f8381526020019081526020015f205f8473ffffffffffffffffffffffffffffffffffffffff1673ffffffffffffffffffffffffffffffffffffffff1681526020019081526020015f2054905092915050565b5f7fd9b67a26000000000000000000000000000000000000000000000000000000007bffffffffffffffffffffffffffffffffffffffffffffffffffffffff1916827bffffffffffffffffffffffffffffffffffffffffffffffffffffffff1916148061049957507f0e89341c000000000000000000000000000000000000000000000000000000007bffffffffffffffffffffffffffffffffffffffffffffffffffffffff1916827bffffffffffffffffffffffffffffffffffffffffffffffffffffffff1916145b806104a957506104a8826109e7565b5b9050919050565b6104b8610a50565b80600490816104c791906123e1565b506104d181610ad7565b50565b6060600280546104e390612214565b80601f016020809104026020016040519081016040528092919081815260200182805461050f90612214565b801561055a5780601f106105315761010080835404028352916020019161055a565b820191905f5260205f20905b81548152906001019060200180831161053d57829003601f168201915b50505050509050919050565b5f61056f610aea565b90508073ffffffffffffffffffffffffffffffffffffffff168673ffffffffffffffffffffffffffffffffffffffff16141580156105b457506105b2868261082e565b155b156105f85780866040517fe237d9220000000000000000000000000000000000000000000000000000000081526004016105ef9291906124b0565b60405180910390fd5b6106058686868686610af1565b505050505050565b6060815183511461065957815183516040517f5b0599910000000000000000000000000000000000000000000000000000000081526004016106509291906124d7565b60405180910390fd5b5f835167ffffffffffffffff81111561067557610674611971565b5b6040519080825280602002602001820160405280156106a35781602001602082028036833780820191505090505b5090505f5b845181101561070f576106df6106c78287610be590919063ffffffff16565b6106da8387610bf890919063ffffffff16565b61037a565b8282815181106106f2576106f16124fe565b5b6020026020010181815250508061070890612558565b90506106a8565b508091505092915050565b610722610a50565b61072b5f610c0b565b565b610735610a50565b5f8211610777576040517f08c379a000000000000000000000000000000000000000000000000000000000815260040161076e906125e9565b60405180910390fd5b61078384848484610cce565b50505050565b5f81565b5f60035f9054906101000a900473ffffffffffffffffffffffffffffffffffffffff16905090565b6107c76107c0610aea565b8383610d63565b5050565b5f341161080d576040517f08c379a000000000000000000000000000000000000000000000000000000000815260040161080490612651565b60405180910390fd5b5f34905061082b335f8360405180602001604052805f815250610cce565b50565b5f60015f8473ffffffffffffffffffffffffffffffffffffffff1673ffffffffffffffffffffffffffffffffffffffff1681526020019081526020015f205f8373ffffffffffffffffffffffffffffffffffffffff1673ffffffffffffffffffffffffffffffffffffffff1681526020019081526020015f205f9054906101000a900460ff16905092915050565b5f6108c5610aea565b90508073ffffffffffffffffffffffffffffffffffffffff168673ffffffffffffffffffffffffffffffffffffffff161415801561090a5750610908868261082e565b155b1561094e5780866040517fe237d9220000000000000000000000000000000000000000000000000000000081526004016109459291906124b0565b60405180910390fd5b61095b8686868686610ecc565b505050505050565b61096b610a50565b5f73ffffffffffffffffffffffffffffffffffffffff168173ffffffffffffffffffffffffffffffffffffffff16036109db575f6040517f1e4fbdf70000000000000000000000000000000000000000000000000000000081526004016109d2919061206a565b60405180910390fd5b6109e481610c0b565b50565b5f7f01ffc9a7000000000000000000000000000000000000000000000000000000007bffffffffffffffffffffffffffffffffffffffffffffffffffffffff1916827bffffffffffffffffffffffffffffffffffffffffffffffffffffffff1916149050919050565b610a58610aea565b73ffffffffffffffffffffffffffffffffffffffff16610a7661078d565b73ffffffffffffffffffffffffffffffffffffffff1614610ad557610a99610aea565b6040517f118cdaa7000000000000000000000000000000000000000000000000000000008152600401610acc919061206a565b60405180910390fd5b565b8060029081610ae691906123e1565b5050565b5f33905090565b5f73ffffffffffffffffffffffffffffffffffffffff168473ffffffffffffffffffffffffffffffffffffffff1603610b61575f6040517f57f447ce000000000000000000000000000000000000000000000000000000008152600401610b58919061206a565b60405180910390fd5b5f73ffffffffffffffffffffffffffffffffffffffff168573ffffffffffffffffffffffffffffffffffffffff1603610bd1575f6040517f01a83514000000000000000000000000000000000000000000000000000000008152600401610bc8919061206a565b60405180910390fd5b610bde8585858585610fd2565b5050505050565b5f60208202602084010151905092915050565b5f60208202602084010151905092915050565b5f60035f9054906101000a900473ffffffffffffffffffffffffffffffffffffffff1690508160035f6101000a81548173ffffffffffffffffffffffffffffffffffffffff021916908373ffffffffffffffffffffffffffffffffffffffff1602179055508173ffffffffffffffffffffffffffffffffffffffff168173ffffffffffffffffffffffffffffffffffffffff167f8be0079c531659141344cd1fd0a4f28419497f9722a3daafe3b4186f6b6457e060405160405180910390a35050565b5f73ffffffffffffffffffffffffffffffffffffffff168473ffffffffffffffffffffffffffffffffffffffff1603610d3e575f6040517f57f447ce000000000000000000000000000000000000000000000000000000008152600401610d35919061206a565b60405180910390fd5b5f80610d4a858561107e565b91509150610d5b5f87848487610fd2565b505050505050565b5f73ffffffffffffffffffffffffffffffffffffffff168273ffffffffffffffffffffffffffffffffffffffff1603610dd3575f6040517fced3e100000000000000000000000000000000000000000000000000000000008152600401610dca919061206a565b60405180910390fd5b8060015f8573ffffffffffffffffffffffffffffffffffffffff1673ffffffffffffffffffffffffffffffffffffffff1681526020019081526020015f205f8473ffffffffffffffffffffffffffffffffffffffff1673ffffffffffffffffffffffffffffffffffffffff1681526020019081526020015f205f6101000a81548160ff0219169083151502179055508173ffffffffffffffffffffffffffffffffffffffff168373ffffffffffffffffffffffffffffffffffffffff167f17307eab39ab6107e8899845ad3d59bd9653f200f220920489ca2b5937696c3183604051610ebf9190611940565b60405180910390a3505050565b5f73ffffffffffffffffffffffffffffffffffffffff168473ffffffffffffffffffffffffffffffffffffffff1603610f3c575f6040517f57f447ce000000000000000000000000000000000000000000000000000000008152600401610f33919061206a565b60405180910390fd5b5f73ffffffffffffffffffffffffffffffffffffffff168573ffffffffffffffffffffffffffffffffffffffff1603610fac575f6040517f01a83514000000000000000000000000000000000000000000000000000000008152600401610fa3919061206a565b60405180910390fd5b5f80610fb8858561107e565b91509150610fc98787848487610fd2565b50505050505050565b610fde858585856110ae565b5f73ffffffffffffffffffffffffffffffffffffffff168473ffffffffffffffffffffffffffffffffffffffff1614611077575f61101a610aea565b90506001845103611066575f6110395f86610bf890919063ffffffff16565b90505f61104f5f86610bf890919063ffffffff16565b905061105f838989858589611444565b5050611075565b6110748187878787876115f3565b5b505b5050505050565b60608060405191506001825283602083015260408201905060018152826020820152604081016040529250929050565b80518251146110f857815181516040517f5b0599910000000000000000000000000000000000000000000000000000000081526004016110ef9291906124d7565b60405180910390fd5b5f611101610aea565b90505f5b8351811015611303575f6111228286610bf890919063ffffffff16565b90505f6111388386610bf890919063ffffffff16565b90505f73ffffffffffffffffffffffffffffffffffffffff168873ffffffffffffffffffffffffffffffffffffffff161461125b575f805f8481526020019081526020015f205f8a73ffffffffffffffffffffffffffffffffffffffff1673ffffffffffffffffffffffffffffffffffffffff1681526020019081526020015f205490508181101561120757888183856040517f03dee4c50000000000000000000000000000000000000000000000000000000081526004016111fe949392919061266f565b60405180910390fd5b8181035f808581526020019081526020015f205f8b73ffffffffffffffffffffffffffffffffffffffff1673ffffffffffffffffffffffffffffffffffffffff1681526020019081526020015f2081905550505b5f73ffffffffffffffffffffffffffffffffffffffff168773ffffffffffffffffffffffffffffffffffffffff16146112f057805f808481526020019081526020015f205f8973ffffffffffffffffffffffffffffffffffffffff1673ffffffffffffffffffffffffffffffffffffffff1681526020019081526020015f205f8282546112e891906126b2565b925050819055505b5050806112fc90612558565b9050611105565b5060018351036113be575f6113215f85610bf890919063ffffffff16565b90505f6113375f85610bf890919063ffffffff16565b90508573ffffffffffffffffffffffffffffffffffffffff168773ffffffffffffffffffffffffffffffffffffffff168473ffffffffffffffffffffffffffffffffffffffff167fc3d58168c5ae7397731d063d5bbf3d657854427343f4c083240f7aacaa2d0f6285856040516113af9291906124d7565b60405180910390a4505061143d565b8373ffffffffffffffffffffffffffffffffffffffff168573ffffffffffffffffffffffffffffffffffffffff168273ffffffffffffffffffffffffffffffffffffffff167f4a39dc06d4c0dbc64b70af90fd698a233a518aa5d07e595d983b8c0526c8f7fb86866040516114349291906126e5565b60405180910390a45b5050505050565b5f8473ffffffffffffffffffffffffffffffffffffffff163b11156115eb578373ffffffffffffffffffffffffffffffffffffffff1663f23a6e6187878686866040518663ffffffff1660e01b81526004016114a495949392919061276c565b6020604051808303815f875af19250505080156114df57506040513d601f19601f820116820180604052508101906114dc91906127d8565b60015b611560573d805f811461150d576040519150601f19603f3d011682016040523d82523d5f602084013e611512565b606091505b505f81510361155857846040517f57f447ce00000000000000000000000000000000000000000000000000000000815260040161154f919061206a565b60405180910390fd5b805181602001fd5b63f23a6e6160e01b7bffffffffffffffffffffffffffffffffffffffffffffffffffffffff1916817bffffffffffffffffffffffffffffffffffffffffffffffffffffffff1916146115e957846040517f57f447ce0000000000000000000000000000000000000000000000000000000081526004016115e0919061206a565b60405180910390fd5b505b505050505050565b5f8473ffffffffffffffffffffffffffffffffffffffff163b111561179a578373ffffffffffffffffffffffffffffffffffffffff1663bc197c8187878686866040518663ffffffff1660e01b8152600401611653959493929190612803565b6020604051808303815f875af192505050801561168e57506040513d601f19601f8201168201806040525081019061168b91906127d8565b60015b61170f573d805f81146116bc576040519150601f19603f3d011682016040523d82523d5f602084013e6116c1565b606091505b505f81510361170757846040517f57f447ce0000000000000000000000000000000000000000000000000000000081526004016116fe919061206a565b60405180910390fd5b805181602001fd5b63bc197c8160e01b7bffffffffffffffffffffffffffffffffffffffffffffffffffffffff1916817bffffffffffffffffffffffffffffffffffffffffffffffffffffffff19161461179857846040517f57f447ce00000000000000000000000000000000000000000000000000000000815260040161178f919061206a565b60405180910390fd5b505b505050505050565b5f604051905090565b5f80fd5b5f80fd5b5f73ffffffffffffffffffffffffffffffffffffffff82169050919050565b5f6117dc826117b3565b9050919050565b6117ec816117d2565b81146117f6575f80fd5b50565b5f81359050611807816117e3565b92915050565b5f819050919050565b61181f8161180d565b8114611829575f80fd5b50565b5f8135905061183a81611816565b92915050565b5f8060408385031215611856576118556117ab565b5b5f611863858286016117f9565b92505060206118748582860161182c565b9150509250929050565b6118878161180d565b82525050565b5f6020820190506118a05f83018461187e565b92915050565b5f7fffffffff0000000000000000000000000000000000000000000000000000000082169050919050565b6118da816118a6565b81146118e4575f80fd5b50565b5f813590506118f5816118d1565b92915050565b5f602082840312156119105761190f6117ab565b5b5f61191d848285016118e7565b91505092915050565b5f8115159050919050565b61193a81611926565b82525050565b5f6020820190506119535f830184611931565b92915050565b5f80fd5b5f80fd5b5f601f19601f8301169050919050565b7f4e487b71000000000000000000000000000000000000000000000000000000005f52604160045260245ffd5b6119a782611961565b810181811067ffffffffffffffff821117156119c6576119c5611971565b5b80604052505050565b5f6119d86117a2565b90506119e4828261199e565b919050565b5f67ffffffffffffffff821115611a0357611a02611971565b5b611a0c82611961565b9050602081019050919050565b828183375f83830152505050565b5f611a39611a34846119e9565b6119cf565b905082815260208101848484011115611a5557611a5461195d565b5b611a60848285611a19565b509392505050565b5f82601f830112611a7c57611a7b611959565b5b8135611a8c848260208601611a27565b91505092915050565b5f60208284031215611aaa57611aa96117ab565b5b5f82013567ffffffffffffffff811115611ac757611ac66117af565b5b611ad384828501611a68565b91505092915050565b5f60208284031215611af157611af06117ab565b5b5f611afe8482850161182c565b91505092915050565b5f81519050919050565b5f82825260208201905092915050565b5f5b83811015611b3e578082015181840152602081019050611b23565b5f8484015250505050565b5f611b5382611b07565b611b5d8185611b11565b9350611b6d818560208601611b21565b611b7681611961565b840191505092915050565b5f6020820190508181035f830152611b998184611b49565b905092915050565b5f67ffffffffffffffff821115611bbb57611bba611971565b5b602082029050602081019050919050565b5f80fd5b5f611be2611bdd84611ba1565b6119cf565b90508083825260208201905060208402830185811115611c0557611c04611bcc565b5b835b81811015611c2e5780611c1a888261182c565b845260208401935050602081019050611c07565b5050509392505050565b5f82601f830112611c4c57611c4b611959565b5b8135611c5c848260208601611bd0565b91505092915050565b5f67ffffffffffffffff821115611c7f57611c7e611971565b5b611c8882611961565b9050602081019050919050565b5f611ca7611ca284611c65565b6119cf565b905082815260208101848484011115611cc357611cc261195d565b5b611cce848285611a19565b509392505050565b5f82601f830112611cea57611ce9611959565b5b8135611cfa848260208601611c95565b91505092915050565b5f805f805f60a08688031215611d1c57611d1b6117ab565b5b5f611d29888289016117f9565b9550506020611d3a888289016117f9565b945050604086013567ffffffffffffffff811115611d5b57611d5a6117af565b5b611d6788828901611c38565b935050606086013567ffffffffffffffff811115611d8857611d876117af565b5b611d9488828901611c38565b925050608086013567ffffffffffffffff811115611db557611db46117af565b5b611dc188828901611cd6565b9150509295509295909350565b5f67ffffffffffffffff821115611de857611de7611971565b5b602082029050602081019050919050565b5f611e0b611e0684611dce565b6119cf565b90508083825260208201905060208402830185811115611e2e57611e2d611bcc565b5b835b81811015611e575780611e4388826117f9565b845260208401935050602081019050611e30565b5050509392505050565b5f82601f830112611e7557611e74611959565b5b8135611e85848260208601611df9565b91505092915050565b5f8060408385031215611ea457611ea36117ab565b5b5f83013567ffffffffffffffff811115611ec157611ec06117af565b5b611ecd85828601611e61565b925050602083013567ffffffffffffffff811115611eee57611eed6117af565b5b611efa85828601611c38565b9150509250929050565b5f81519050919050565b5f82825260208201905092915050565b5f819050602082019050919050565b611f368161180d565b82525050565b5f611f478383611f2d565b60208301905092915050565b5f602082019050919050565b5f611f6982611f04565b611f738185611f0e565b9350611f7e83611f1e565b805f5b83811015611fae578151611f958882611f3c565b9750611fa083611f53565b925050600181019050611f81565b5085935050505092915050565b5f6020820190508181035f830152611fd38184611f5f565b905092915050565b5f805f8060808587031215611ff357611ff26117ab565b5b5f612000878288016117f9565b94505060206120118782880161182c565b93505060406120228782880161182c565b925050606085013567ffffffffffffffff811115612043576120426117af565b5b61204f87828801611cd6565b91505092959194509250565b612064816117d2565b82525050565b5f60208201905061207d5f83018461205b565b92915050565b61208c81611926565b8114612096575f80fd5b50565b5f813590506120a781612083565b92915050565b5f80604083850312156120c3576120c26117ab565b5b5f6120d0858286016117f9565b92505060206120e185828601612099565b9150509250929050565b5f8060408385031215612101576121006117ab565b5b5f61210e858286016117f9565b925050602061211f858286016117f9565b9150509250929050565b5f805f805f60a08688031215612142576121416117ab565b5b5f61214f888289016117f9565b9550506020612160888289016117f9565b94505060406121718882890161182c565b93505060606121828882890161182c565b925050608086013567ffffffffffffffff8111156121a3576121a26117af565b5b6121af88828901611cd6565b9150509295509295909350565b5f602082840312156121d1576121d06117ab565b5b5f6121de848285016117f9565b91505092915050565b7f4e487b71000000000000000000000000000000000000000000000000000000005f52602260045260245ffd5b5f600282049050600182168061222b57607f821691505b60208210810361223e5761223d6121e7565b5b50919050565b5f819050815f5260205f209050919050565b5f6020601f8301049050919050565b5f82821b905092915050565b5f600883026122a07fffffffffffffffffffffffffffffffffffffffffffffffffffffffffffffffff82612265565b6122aa8683612265565b95508019841693508086168417925050509392505050565b5f819050919050565b5f6122e56122e06122db8461180d565b6122c2565b61180d565b9050919050565b5f819050919050565b6122fe836122cb565b61231261230a826122ec565b848454612271565b825550505050565b5f90565b61232661231a565b6123318184846122f5565b505050565b5b81811015612354576123495f8261231e565b600181019050612337565b5050565b601f8211156123995761236a81612244565b61237384612256565b81016020851015612382578190505b61239661238e85612256565b830182612336565b50505b505050565b5f82821c905092915050565b5f6123b95f198460080261239e565b1980831691505092915050565b5f6123d183836123aa565b9150826002028217905092915050565b6123ea82611b07565b67ffffffffffffffff81111561240357612402611971565b5b61240d8254612214565b612418828285612358565b5f60209050601f831160018114612449575f8415612437578287015190505b61244185826123c6565b8655506124a8565b601f19841661245786612244565b5f5b8281101561247e57848901518255600182019150602085019450602081019050612459565b8683101561249b5784890151612497601f8916826123aa565b8355505b6001600288020188555050505b505050505050565b5f6040820190506124c35f83018561205b565b6124d0602083018461205b565b9392505050565b5f6040820190506124ea5f83018561187e565b6124f7602083018461187e565b9392505050565b7f4e487b71000000000000000000000000000000000000000000000000000000005f52603260045260245ffd5b7f4e487b71000000000000000000000000000000000000000000000000000000005f52601160045260245ffd5b5f6125628261180d565b91507fffffffffffffffffffffffffffffffffffffffffffffffffffffffffffffffff82036125945761259361252b565b5b600182019050919050565b7f416d6f756e74206d7573742062652067726561746572207468616e20300000005f82015250565b5f6125d3601d83611b11565b91506125de8261259f565b602082019050919050565b5f6020820190508181035f830152612600816125c7565b9050919050565b7f56616c7565206d757374206265206d6f7265207468656e207a65726f000000005f82015250565b5f61263b601c83611b11565b915061264682612607565b602082019050919050565b5f6020820190508181035f8301526126688161262f565b9050919050565b5f6080820190506126825f83018761205b565b61268f602083018661187e565b61269c604083018561187e565b6126a9606083018461187e565b95945050505050565b5f6126bc8261180d565b91506126c78361180d565b92508282019050808211156126df576126de61252b565b5b92915050565b5f6040820190508181035f8301526126fd8185611f5f565b905081810360208301526127118184611f5f565b90509392505050565b5f81519050919050565b5f82825260208201905092915050565b5f61273e8261271a565b6127488185612724565b9350612758818560208601611b21565b61276181611961565b840191505092915050565b5f60a08201905061277f5f83018861205b565b61278c602083018761205b565b612799604083018661187e565b6127a6606083018561187e565b81810360808301526127b88184612734565b90509695505050505050565b5f815190506127d2816118d1565b92915050565b5f602082840312156127ed576127ec6117ab565b5b5f6127fa848285016127c4565b91505092915050565b5f60a0820190506128165f83018861205b565b612823602083018761205b565b81810360408301526128358186611f5f565b905081810360608301526128498185611f5f565b9050818103608083015261285d8184612734565b9050969550505050505056fea264697066735822122031c763f98b73094377070b55d64c90d07706ceb8ff19f238b5d1dbb4ce04f5bb64736f6c6343000814003368747470733a2f2f692d616d2d6d757369632e72752f7374617469632f696d616765732f312e706e67",
  "immutableReferences": {},
  "source": "\n// SPDX-License-Identifier: MIT\npragma solidity ^0.8.20;\n\nimport \"@openzeppelin/contracts/token/ERC1155/ERC1155.sol\";\nimport \"@openzeppelin/contracts/token/ERC1155/extensions/ERC1155URIStorage.sol\";\nimport \"@openzeppelin/contracts/access/Ownable.sol\";\n\ncontract Rub is ERC1155, Ownable {\n    string private baseURI;\n    uint256 public constant TOKEN_ID = 0;\n    constructor(\n    ) ERC1155(\"https://i-am-music.ru/static/images/1.png\") Ownable(msg.sender) {\n        baseURI=\"https://i-am-music.ru/static/images/1.png\";\n    }\n\n    /**\n     * @notice Allows the owner to update the base URI for token metadata.\n     * @param newURI The new base URI.\n     */\n    function setURI(string memory newURI) public onlyOwner {\n        baseURI = newURI;\n        _setURI(newURI);\n    }\n\n    /**\n     * @notice Allows a user to buy tokens by sending ETH.\n     * The number of tokens bought is proportional to the amount of ETH sent.\n     * @dev Tokens are automatically minted for the user based on the amount of ETH sent.\n     */\n    function buy() public payable {\n        require(msg.value > 0, \"Value must be more then zero\");\n        uint256 tokensToBuy = msg.value;\n\n        _mint(msg.sender, TOKEN_ID, tokensToBuy, \"\");\n    }\n\n    /**\n     * @notice Mints a specified amount of tokens to a given address. Can only be called by the owner.\n     * @param account The address to mint the tokens to.\n     * @param id The ID of the token type.\n     * @param amount The number of tokens to mint.\n     * @param data Additional data that can be passed with the minting process.\n     */\n    function mint(\n        address account,\n        uint256 id,\n        uint256 amount,\n        bytes memory data\n    ) public onlyOwner {\n        require(amount > 0, \"Amount must be greater than 0\");\n        _mint(account, id, amount, data);\n    }\n\n\n    /**\n     * @notice Returns the base URI.\n     * @return The base URI for token metadata.\n     */\n    function _baseURI() internal view returns (string memory) {\n        return baseURI;\n    }\n}",
  "sourcePath": "/Users/vasilijlazarev/hse/web3/hw1/contracts/RubERC1155.sol",
  "compiler": {
    "name": "solc",
    "version": "0.8.20+commit.a1b79de6.Emscripten.clang"
  },
  "schemaVersion": "3.4.16",
  "updatedAt": "2024-10-19T21:34:13.744Z",
  "devdoc": {
    "errors": {
      "ERC1155InsufficientBalance(address,uint256,uint256,uint256)": [
        {
          "details": "Indicates an error related to the current `balance` of a `sender`. Used in transfers.",
          "params": {
            "balance": "Current balance for the interacting account.",
            "needed": "Minimum amount required to perform a transfer.",
            "sender": "Address whose tokens are being transferred.",
            "tokenId": "Identifier number of a token."
          }
        }
      ],
      "ERC1155InvalidApprover(address)": [
        {
          "details": "Indicates a failure with the `approver` of a token to be approved. Used in approvals.",
          "params": {
            "approver": "Address initiating an approval operation."
          }
        }
      ],
      "ERC1155InvalidArrayLength(uint256,uint256)": [
        {
          "details": "Indicates an array length mismatch between ids and values in a safeBatchTransferFrom operation. Used in batch transfers.",
          "params": {
            "idsLength": "Length of the array of token identifiers",
            "valuesLength": "Length of the array of token amounts"
          }
        }
      ],
      "ERC1155InvalidOperator(address)": [
        {
          "details": "Indicates a failure with the `operator` to be approved. Used in approvals.",
          "params": {
            "operator": "Address that may be allowed to operate on tokens without being their owner."
          }
        }
      ],
      "ERC1155InvalidReceiver(address)": [
        {
          "details": "Indicates a failure with the token `receiver`. Used in transfers.",
          "params": {
            "receiver": "Address to which tokens are being transferred."
          }
        }
      ],
      "ERC1155InvalidSender(address)": [
        {
          "details": "Indicates a failure with the token `sender`. Used in transfers.",
          "params": {
            "sender": "Address whose tokens are being transferred."
          }
        }
      ],
      "ERC1155MissingApprovalForAll(address,address)": [
        {
          "details": "Indicates a failure with the `operator`s approval. Used in transfers.",
          "params": {
            "operator": "Address that may be allowed to operate on tokens without being their owner.",
            "owner": "Address of the current owner of a token."
          }
        }
      ],
      "OwnableInvalidOwner(address)": [
        {
          "details": "The owner is not a valid owner account. (eg. `address(0)`)"
        }
      ],
      "OwnableUnauthorizedAccount(address)": [
        {
          "details": "The caller account is not authorized to perform an operation."
        }
      ]
    },
    "events": {
      "ApprovalForAll(address,address,bool)": {
        "details": "Emitted when `account` grants or revokes permission to `operator` to transfer their tokens, according to `approved`."
      },
      "TransferBatch(address,address,address,uint256[],uint256[])": {
        "details": "Equivalent to multiple {TransferSingle} events, where `operator`, `from` and `to` are the same for all transfers."
      },
      "TransferSingle(address,address,address,uint256,uint256)": {
        "details": "Emitted when `value` amount of tokens of type `id` are transferred from `from` to `to` by `operator`."
      },
      "URI(string,uint256)": {
        "details": "Emitted when the URI for token type `id` changes to `value`, if it is a non-programmatic URI. If an {URI} event was emitted for `id`, the standard https://eips.ethereum.org/EIPS/eip-1155#metadata-extensions[guarantees] that `value` will equal the value returned by {IERC1155MetadataURI-uri}."
      }
    },
    "kind": "dev",
    "methods": {
      "balanceOf(address,uint256)": {
        "details": "See {IERC1155-balanceOf}."
      },
      "balanceOfBatch(address[],uint256[])": {
        "details": "See {IERC1155-balanceOfBatch}. Requirements: - `accounts` and `ids` must have the same length."
      },
      "buy()": {
        "details": "Tokens are automatically minted for the user based on the amount of ETH sent."
      },
      "isApprovedForAll(address,address)": {
        "details": "See {IERC1155-isApprovedForAll}."
      },
      "mint(address,uint256,uint256,bytes)": {
        "params": {
          "account": "The address to mint the tokens to.",
          "amount": "The number of tokens to mint.",
          "data": "Additional data that can be passed with the minting process.",
          "id": "The ID of the token type."
        }
      },
      "owner()": {
        "details": "Returns the address of the current owner."
      },
      "renounceOwnership()": {
        "details": "Leaves the contract without owner. It will not be possible to call `onlyOwner` functions. Can only be called by the current owner. NOTE: Renouncing ownership will leave the contract without an owner, thereby disabling any functionality that is only available to the owner."
      },
      "safeBatchTransferFrom(address,address,uint256[],uint256[],bytes)": {
        "details": "See {IERC1155-safeBatchTransferFrom}."
      },
      "safeTransferFrom(address,address,uint256,uint256,bytes)": {
        "details": "See {IERC1155-safeTransferFrom}."
      },
      "setApprovalForAll(address,bool)": {
        "details": "See {IERC1155-setApprovalForAll}."
      },
      "setURI(string)": {
        "params": {
          "newURI": "The new base URI."
        }
      },
      "supportsInterface(bytes4)": {
        "details": "See {IERC165-supportsInterface}."
      },
      "transferOwnership(address)": {
        "details": "Transfers ownership of the contract to a new account (`newOwner`). Can only be called by the current owner."
      },
      "uri(uint256)": {
        "details": "See {IERC1155MetadataURI-uri}. This implementation returns the same URI for *all* token types. It relies on the token type ID substitution mechanism https://eips.ethereum.org/EIPS/eip-1155#metadata[defined in the ERC]. Clients calling this function must replace the `\\{id\\}` substring with the actual token type ID."
      }
    },
    "version": 1
  },
  "userdoc": {
    "kind": "user",
    "methods": {
      "buy()": {
        "notice": "Allows a user to buy tokens by sending ETH. The number of tokens bought is proportional to the amount of ETH sent."
      },
      "mint(address,uint256,uint256,bytes)": {
        "notice": "Mints a specified amount of tokens to a given address. Can only be called by the owner."
      },
      "setURI(string)": {
        "notice": "Allows the owner to update the base URI for token metadata."
      }
    },
    "version": 1
  }
}